:020000040800F2
:100000000000082469030008550800085908000882
:100010005D0800086108000865080008000000008D
:100020000000000000000000000000006908000857
:100030006D0800080000000071080008750800083D
:10004000BD030008BD030008BD030008BD03000890
:10005000BD030008BD030008BD030008BD03000880
:10006000BD030008BD030008BD030008BD03000870
:10007000BD030008BD030008BD030008BD03000860
:10008000BD030008BD030008BD030008BD03000850
:10009000BD030008BD030008BD030008BD03000840
:1000A000BD030008BD030008BD030008BD03000830
:1000B00079080008BD030008BD030008BD0300085F
:1000C000BD030008BD030008BD030008BD03000810
:1000D000BD030008BD030008BD030008BD03000800
:1000E000BD030008BD03000800000000BD030008B8
:1000F000BD030008BD030008BD030008BD030008E0
:10010000BD030008BD030008BD030008BD030008CF
:10011000BD030008BD030008BD030008BD030008BF
:10012000BD030008BD030008BD030008BD030008AF
:10013000BD030008BD030008BD030008BD0300089F
:1001400000000000000000000000000000000000AF
:10015000BD030008BD030008BD030008BD0300087F
:10016000BD030008BD030008BD030008BD0300086F
:10017000BD030008BD030008BD0300080000000027
:10018000BD030008BD030008BD030008BD0300084F
:10019000BD030008BD030008BD030008BD0300083F
:1001A000BD030008BD030008BD030008BD0300082F
:1001B000BD030008BD030008BD030008BD0300081F
:1001C000BD030008BD030008BD030008BD0300080F
:1001D000BD03000885080008BD030008BD03000832
:1001E000BD030008BD030008BD030008BD030008EF
:1001F000BD030008BD030008BD030008BD030008DF
:10020000BD030008BD030008BD030008BD030008CE
:10021000BD030008BD030008BD030008BD030008BE
:10022000BD030008BD030008BD0300080000000076
:10023000BD030008BD03000800000000BD03000866
:10024000BD030008BD030008BD030008BD0300088E
:10025000BD030008BD030008BD030008BD0300087E
:10026000BD030008BD030008BD030008BD0300086E
:10027000BD030008BD030008BD0300080000000026
:10028000BD030008BD030008BD0300080000000016
:0802900000000000BD0300089E
:1002980053B94AB9002908BF00281CBF4FF0FF31E5
:1002A8004FF0FF3000F00CB8ADF1080C6DE904CE4A
:1002B80006F018F9DDF804E0DDE9022304B0704720
:1002C800704700BF034613F8012B002AFBD1181A08
:1002D800013870470348044B834202D0034B03B1F3
:1002E80018477047FC000024FC00002400000000B0
:1002F8000548064B1B1AD90F01EBA301491002D080
:10030800034B03B118477047FC000024FC0000248D
:100318000000000010B5064C237843B9FFF7DAFF58
:10032800044B13B10448AFF300800123237010BDC0
:1003380000010024000000003C68000808B5054BD7
:100348001BB105490548AFF30080BDE80840FFF739
:10035800CFBF00BF00000000040100243C68000873
:10036800DFF838D000F0E6FA00F08EFA0C480D49B4
:100378000D4A002302E0D458C4500433C4188C42F8
:10038800F9D30A4A0A4C002301E013600432A2425E
:10039800FBD306F02BFA00F0B7F8704700000824EA
:1003A80000000024FC000024E46800080001002488
:1003B800B08C0024FEE7000008B572B600220121C7
:1003C800044801F0A3F900220221034801F09EF934
:1003D800FEE700BF0008025800000258F0B5CFB091
:1003E8004C22002102AC0AA806F0F8F920220021CC
:1003F800204606F0F3F9C02200211EA806F0EEF907
:10040800022001F06DFF002876D13C496B46009030
:10041800C86A3B4A20F00100C862C96A01F00101BC
:100428000091916941F440419161916901F4404121
:1004380000911B6893699B04FCD501224FF480331B
:1004480002254FF0050E042708260AA817951995C6
:100458001B9518971A96CDE90A2300230D9311933B
:100468001C93A023CDE91355CDE915E301F0D6FF80
:100478000346002840D12F9319214FF480221EA84B
:100488002A95CDE92C534FF4001340934FF4A873E9
:10049800CDE9281307232B934FF400732E930023E1
:1004A800CDE91E2302F012FD30BB3F224023E0615C
:1004B800394622600322C4E904034FF48063626072
:1004C800C4E902062046A36102F0B6FAA0B90D4BB2
:1004D8000DEB07011A6842F080021A60D3F8F42085
:1004E8002A43C3F8F420D3F8F4302B400B600B6890
:1004F80000F048FF4FB0F0BDFFF75EFF0004005862
:100508000048025800440258774A536913F40033EC
:1005180000B591B011D1BFF34F8FBFF36F8FC2F801
:100528005032BFF34F8FBFF36F8F536943F40033DB
:100538005361BFF34F8FBFF36F8F6B48436913F459
:10054800803326D1C0F88430BFF34F8FD0F8804075
:1005580043F6E075C4F34E3CC4F3C9044FEA4C1C9F
:100568000CEA0501234641EA8372013B5E1CC0F890
:100578006022F8D1ACF1200C1CF1200FF0D1BFF3B0
:100588004F8F436943F480334361BFF34F8FBFF309
:100598006F8F002400F09CFEFFF720FF534B0C9454
:1005A8000122022108AD0126CDE90844CDE90A441B
:1005B800D3F8E0001043C3F8E000D3F8E00010409F
:1005C80001900198D3F8E00040F00400C3F8E0007F
:1005D800D3F8E00000F0040002900298D3F8E0009D
:1005E80040F01000C3F8E000D3F8E030404803F0D2
:1005F80010030393039B01F089F8224601213D482B
:1006080001F084F802232946394808930B94CDE970
:10061800096400F031FF37482946089600F02CFF9E
:100628004FF680720023294633480A94CDE90823FF
:1006380000F022FF082329462F4808930A9600F065
:100648001BFF2E4A4FF08043049413601323104677
:10065800946053604FF0FF3314619461D360079442
:10066800CDE9054404F038F80246A8BB04A923489C
:10067800CDE90426CDE9062204F08CF9034658BBDF
:100688001F4CC7221F4908902361A361C4E90202D5
:10069800C5E90100C5E90300C5E90500C4E9001082
:1006A800204603F0E7FF0246B0B90A9029460C90AD
:1006B80020469FED0B7B8DED087B04F083F858B93D
:1006C800204600F095F801F02FFE00F013FB00F033
:1006D8003DF900F0CFF9FCE7FFF76EFEAFF30080BD
:1006E800600000006400000000ED00E000440258D3
:1006F800000002580008025800100258680100243F
:100708001C01002400040040074B82B0D3F8F420F9
:1007180042F00202C3F8F420D3F8F43003F00203E5
:100728000193019B02B0704700440258000000008A
:10073800036830B5B3F1804F89B04FF000040494DA
:1007480001D009B030BD1A4B012503211948D3F84F
:10075800E82042F00102C3F8E820D3F8E82002F0CC
:1007680001020092009AD3F8E02042F00102C3F897
:10077800E020D3F8E030059102A92B4006959FEDC3
:100788000A7B0193019B8DED027B00F075FE2246EA
:1007980029461C2000F010FE1C2000F049FE09B07C
:1007A80030BD00BFAFF30080010000000200000070
:1007B80000440258000002580A4B02689A4200D0CE
:1007C8007047094B82B0D3F8E82042F00202C3F820
:1007D800E820D3F8E83003F002030193019B02B04C
:1007E800704700BF000400400044025800000000A9
:1007F800134A0023016810B5914288B0CDE904334B
:1008080001D008B010BD0F4B022402A90E48D3F83E
:10081800E02042F00102C3F8E020D3F8E03006946B
:1008280003F001039FED047B0193019B8DED027B97
:1008380000F022FE08B010BD4000000002000000D9
:10084800000400400044025800000258704700BFEE
:10085800FEE700BFFEE700BFFEE700BFFEE700BF00
:10086800704700BF704700BF704700BF00F060BD11
:10087800014803F0DFBD00BF68010024014800F013
:10088800D7BF00BF8487002410B4244C0022244B17
:10089800D4F88800234940F47000C4F88800186828
:1008A800214C40F0010018601A6118680140196075
:1008B8009A61DA611A629A62DA621A635A639A630F
:1008C800DA631A645A64196821F4802119601A6677
:1008D80023686FF30F03B3F1005F03D2134B0122B8
:1008E800C3F808210E4BD3F8D420D2040FD4D3F880
:1008F800D42043F2D2000E4942F48052C3F8D420E7
:100908000860D3F8D42022F48052C3F8D420034BD3
:100918004FF000625DF8044B9A60704700ED00E00C
:10092800004402587FEDF6EA0010005C0080005198
:1009380000400052044BDA6842F00202DA605A685A
:100948009204FCD5704700BF0048025838B500240F
:10095800174B1849184A1C60184D194B0C60082190
:10096800184814701C702C7000F0CAFE164B2246F2
:1009780001211870154800F0C9FE0122022114480F
:1009880000F0C4FE1349144BD1F8FC20134842F080
:100998008072C1F8FC2021465C601A6842F00102AE
:1009A8001A6003F04DFC08B105232B7038BD00BF59
:1009B800B801002404020024B60100240002002427
:1009C800B501002400100258B401002400080258A0
:1009D8000000025800ED00E0001000E0680100246B
:1009E800F8B51B4E337813B13378042B2DD172B67A
:1009F8000024184A184F01251460184A184B14602F
:100A0800184A1B681470184A5C6214703A68546279
:100A18006FF003021A61357062B60221224613484C
:100A280000F074FE294612482A4600F06FFE21465F
:100A3800384603F001FC08B92846F8BD2246294685
:100A48000B4800F063FE052333700020F8BD00BF9B
:100A580000020024040200241C010024B801002420
:100A680068010024B6010024B501002400000258E2
:100A7800000802582DE9F0414D4D08214D4800F07D
:100A88003FFE2B780446012B01D1002869D04A4B40
:100A98002C701A78022A08D100224849484C494843
:100AA8000A7003212260027019701A78032A01D093
:100AB800BDE8F081444A92F89C120329F8D1D2F893
:100AC800BC22002AF4D0D2F814120029F0D13D4DEE
:100AD8002A78002A51D1394C2378002B56D0384E29
:100AE8003368C3F58054082C28BF0824B3F5805F09
:100AF80027D0364A4FF0A5085A2702EBC30C344BCF
:100B08000CF1040E3EF8310008335CF83120013155
:100B180003F8060C000A03F8042C8C4203F8050CB1
:100B28004FEA122003F8088C03F8030C4FEA12402E
:100B38004FEA126203F8077C03F8020C03F8012C51
:100B4800E0D8E100224889B200F034F90028AFD19A
:100B580033681C44B4F5805F3460A9D101232B703D
:100B6800A6E7142000F0F6FB0821124800F0C8FDA3
:100B780000288CD1FFF734FF89E7042401220221E1
:100B880014481C70BDE8F04100F0C0BD1249134B79
:100B98000F48134AC0E90013124B1021C0E9022381
:100BA80000F008F9002883D10123237080E700BFF3
:100BB800B40100240010025800020024B6010024E9
:100BC800B8010024B501002408820024080200248A
:100BD800C001002400000258544144430308001097
:100BE8008096980040420F000268B2F1804F00D012
:100BF8007047F8B5037F012B03D1354C2378012BBF
:100C080000D0F8BD334E002103F0F2FB4FF496728A
:100C1800314B002137680546E7FB023118462AA305
:100C2800D3E90023FFF734FB2C4A516853685B1A59
:100C3800984205D900BF53685B1A9842FAD83768BA
:100C4800274B002124481E696423E7FB03011EA3E8
:100C5800D3E90023FFF71CFB204AC6F3C8165168E6
:100C680053685B1A834204D200BF53685B1A9842E8
:100C7800FAD81B4B1B69C3F3C813B34201D043F422
:100C8800007618480368B3F5805FBAD2164941F870
:100C9800335001EBC30100258E80CD80BFF35F8FF9
:100CA800013303600368B3F5805FAAD12A460121A6
:100CB8000E4800F02BFD29460D4803F0BFFA022329
:100CC8002370F8BDAFF3008000CA9A3B0000000013
:100CD8000002002404000024FFC99A3B001000E031
:100CE80000100258040200240802002400080258D8
:100CF8001C01002408B500221749184804F0C4FC58
:100D080070B91749154804F0D3FC88B91549134838
:100D180005F08CFBA0B9114804F0E6FCB8B908BD91
:100D2800FFF74AFB0E490D4804F0C2FC0028EDD03D
:100D3800FFF742FB0B49094805F078FB0028EAD089
:100D4800FFF73AFB054804F0CFFC0028E7D0BDE8E0
:100D58000840FFF731BB00BF500000240882002480
:100D6800B8000024080000240020704700207047C5
:100D7800002070470449054808B505F071FB034891
:100D880005F096FB002008BD248500240882002475
:100D980000220549054808B505F054FB04490348F5
:100DA80005F05EFB002008BDE484002408820024CE
:100DB8002485002410B5094CD4F8BC3213B1D3F8FB
:100DC80014320BB1012010BD0A460146204605F039
:100DD80039FB2046BDE8104005F04EBB08820024D0
:100DE8007F4A036893422DE9F04190B005D07D4ACF
:100DF800934251D010B0BDE8F0817B4C4FF4C05104
:100E080000250222D4F8E0300A26784843F001038E
:100E1800C4F8E030D4F8E0300A910AA903F00103DD
:100E28000193019B0323CDE90B25CDE90D3600F095
:100E380023FB4FF4007200230AA96C480C95CDE9F6
:100E48000A2300F019FB4FF4806212230AA96748AD
:100E58000E96CDE90A2301230C9300F00DFBD4F87C
:100E6800D8302A460621652043F00063C4F8D830FC
:100E7800D4F8D83003F000630293029BD4F8003111
:100E880023F08053C4F8003100F096FA652000F092
:100E9800CFFA10B0BDE8F081534C022700250A268E
:100EA800D4F8E03020224FF003080AA943F00103E8
:100EB8004E48C4F8E030D4F8E03003F0010303935F
:100EC800039BD4F8E0303B43C4F8E030D4F8E0307A
:100ED8003B400493049BD4F8E03043F00403C4F887
:100EE800E030D4F8E03003F004030593059BD4F810
:100EF800E03043F08003C4F8E030D4F8E03003F089
:100F080080030693069BD4F8E03043F48073C4F85A
:100F1800E030D4F8E0300A9203F48073CDF83480DE
:100F28000E960793079BCDE90B7500F0A5FA0823E9
:100F38000AA92E480A93CDF834800E96CDE90B7590
:100F480000F09AFA43F6234202230AA928480C958E
:100F58000E96CDE90A2300F08FFA012202230AA98E
:100F680024480C950E96CDE90A2300F085FA102244
:100F780002230AA920480C950E96CDE90A2300F011
:100F88007BFA4FF4006202230AA91C480E960C95BE
:100F9800CDE90A2300F070FAD4F8D8302A460121A6
:100FA80043F080634D20C4F8D830D4F8D83003F02B
:100FB80080630893089BD4F8D83043F00073C4F8D2
:100FC800D830D4F8D83003F000730993099B00F0A7
:100FD800F3F94D2000F02CFA10B0BDE8F08100BF05
:100FE8000000084000000440004402580000025875
:100FF8000004025800080258001C02580020025839
:1010080000F29C41D0F8E00404F082BB01EBC1037C
:1010180000EB8303D0F8E004D3F8602204F0A8BB07
:1010280001EBC10300EB8303D0F8E0041A6A04F073
:10103800DFBB00BFD0F8E00404F088BC38B5C57940
:101048000446D0F8E004003D18BF012504F030FC48
:10105800D4F8E0042946BDE8384004F057BC00BF86
:10106800D0F8E00404F056BCD0F8E00404F062BC08
:10107800D0F8E00404F090BCD0F8E00404F076BCAA
:10108800D0F8E00404F09EBCD0F8E00404F09CBC66
:1010980038B5114C0223082200251049C4F8E00491
:1010A800C0F8C8422046E371C4F8093022712160B3
:1010B800E58100F02FFB8021204601F0F1F8294658
:1010C8004022204601F0C6F880220121204601F086
:1010D800C1F8284638BD00BF8487002400000840B6
:1010E80008B5D0F8C80200F081FB002008BD00BF99
:1010F8009446D0F8C8021A4608B5634600F07EFF49
:10110800002008BD08B5D0F8C80200F0B1FF0020E3
:1011180008BD00BF08B5D0F8C80201F025F80020C6
:1011280008BD00BF08B5D0F8C80201F05DF800207E
:1011380008BD00BF0A06D0F8C83206D401EBC101C9
:1011480003EB810393F85602704701F07F0101EB2E
:10115800C10103EB8103987D704700BF08B5D0F843
:10116800C80200F037FF002008BD00BF01F07F0C67
:101178000CEB8C0C00EB8C0CD0F8C80208B5CCF842
:10118800143000F0CFFF002008BD00BF08B5D0F82C
:10119800C80200F09BFF002008BD00BFD0F8C802BD
:1011A80000F0B6BF0048704764850024704700BF50
:1011B800122301480B8070473C0000240423014897
:1011C8000B807047380000240A460348034908B5D5
:1011D80004F0D8FE014808BD64680008688C002443
:1011E8000A46064908B520B9054804F0CBFE03486D
:1011F80008BD044804F0C6FE004808BD688C0024F9
:10120800786800089C6800080A460348034908B53E
:1012180004F0B8FE014808BDB8680008688C0024CE
:101228000A460348034908B504F0ACFE014808BD66
:10123800C4680008688C002410B5114C1A200C22D0
:101248004FF0000C234604F1100E0880100FB2F185
:10125800204F83F803C003F1020300F1370138BFC0
:1012680000F130019E454FEA02121970EED14FF09D
:1012780030130348C4F81230C4F8163010BD00BF4C
:101288001C0000240F4B1B780BB90120704710B5C8
:1012980004464FF47A700C4AB0FBF3F31068B0FBC5
:1012A800F3F000F0D3F80F2C00D808B1012010BDDE
:1012B800002221464FF0FF3000F07EF8034B00205B
:1012C8001C6010BD6C000024040000247000002481
:1012D80010B50320124C00F05DF801F08BFB114BA8
:1012E80011499A699B69C2F3032203F00F03A25CB8
:1012F800E35C02F01F020D4C03F01F03D04020FAFC
:1013080003F3206000200B60FFF7BCFF10B101243D
:10131800204610BD0446FFF7F7F9204610BD00BF70
:101328005468000800440258000000240400002407
:10133800034A044B11681B780B441360704700BFC5
:10134800A88C00246C000024014B1868704700BF6B
:10135800A88C002438B50446FFF7F6FF0546631C41
:1013680002D0044B1B781C44FFF7EEFF401BA04241
:10137800FAD338BD6C000024014B1868000C704784
:101388000010005C024A136A43F0010313627047BD
:101398000004005806494FF6FF0C0002054BCA68C6
:1013A80000F4E06002EA0C0210430343CB6070478C
:1013B80000ED00E00000FA051A4BDB68C3F30223D6
:1013C80000B5C3F1070E03F1040CBEF1040F28BFEA
:1013D8004FF0040EBCF1060F1AD9A3F1030C4FF01D
:1013E800FF3303FA0CF322EA03024FF0FF3300281D
:1013F80003FA0EF321EA030303FA0CF343EA0203A8
:101408004FEA0313DBB206DB074A13545DF804FB0B
:1014180000229446E9E700F00F00044A13545DF8EF
:1014280004FB00BF00ED00E000E400E014ED00E084
:10143800002807DB012300F01F01034A40098B4005
:1014480042F82030704700BF00E100E0431EB3F1CE
:10145800807F01D3012070474FF0E022002005492A
:101468004FF0F00C5361072381F823C0906113619A
:10147800704700BF00ED00E02DE9F04F0C6885B023
:10148800002C00F0B18000234FF0B04789460122BC
:1014980002FA03F515EA040800F0A180D9F804104F
:1014A80003FA02F24FF0030CD9F8086001F0030EBA
:1014B8000CFA02FC0EF1FF3A6FEA0C0CBAF1010FBC
:1014C80040F29580BEF1030F01D1012E05D0C56809
:1014D800964005EA0C052E43C66005680EFA02F22E
:1014E80011F4403F05EA0C0542EA0502026076D095
:1014F800794D03F003064FF00F0CD5F8F420B60031
:1015080042F002020CFA06FCC5F8F420D5F8F420E3
:1015180023F0030505F1B04502F0020205F58065E8
:101528000392039AAA6822EA0C0E6C4A904232D0BF
:1015380002F58062904200F09D80694A904200F076
:10154800A080DFF8A0C1604500F08D80DFF898C169
:10155800604500F0A480DFF894C1604500F0A680E3
:10156800DFF88CC1604500F09380DFF888C16045E2
:1015780000F0A380DFF880C1604500F0A580DFF8A7
:101588007CC160450CBF4FF0090C4FF00A0C0CFAF7
:1015980006F64EEA060EC5F808E0CE023A686FEA8B
:1015A80008054CBF48EA02022A408E023A607A686F
:1015B80054BF2A4048EA02028E037A60D7F8842092
:1015C80054BF2A4048EA0202C903C7F88420D7F862
:1015D800802054BF2A4048EA0202C7F8802001331D
:1015E80034FA03F27FF453AF05B0BDE8F08F9640AC
:1015F800D0F808B0BEF1020F01960BEA0C0BD9F82F
:101608000C6006FA02FA019E4AEA0B0AC0F808A022
:10161800C1F3001AD0F804B00AFA03FA2BEA050558
:101628004AEA05054560C56805EA0C0546EA050667
:10163800C6607FF452AF03F00706D9F810504FEA9E
:10164800D30AB60000EB8A0AB540DAF820B0019553
:101658000F2505FA06F6019D2BEA060B45EA0B0550
:10166800CAF8205039E74FF0030C0CFA06F64EEA98
:10167800060E90E74FF0010C0CFA06F64EEA060E3D
:1016880089E74FF0020C0CFA06F64EEA060E82E7DE
:101698004FF0060C0CFA06F64EEA060E7BE74FF002
:1016A800040C0CFA06F64EEA060E74E74FF0050C29
:1016B8000CFA06F64EEA060E6DE74FF0070C0CFA28
:1016C80006F64EEA060E66E74FF0080C0CFA06F628
:1016D8004EEA060E5FE700BF0044025800000258B9
:1016E80000080258000C0258001002580014025852
:1016F80000180258001C0258002002580024025802
:1017080003691940081E18BF0120704702B909046F
:101718008161704770B582B0C8B190F895340446BD
:1017280003F0FF02002B58D003232068251D84F8FE
:10173800953403F0CBFA237C8DF80030206895E8C7
:101748000E0003F0EBF930B1022384F8953401253B
:10175800284602B070BD0146206803F0BFFA014672
:101768000028F1D1267906B3234622464FF0010C12
:101778001175D185013182F815C0B1421076C2E9E0
:10178800070042F8240FF3D100210A4683F85412C7
:10179800013183F85522B14283F85822C3F86422F4
:1017A800C3E9972203F12403F0D1207C95E80E00C9
:1017B8008DF80000206803F015FB05460028C3D10A
:1017C8000122237B6074934284F895240AD0206810
:1017D80003F0E2FE284602B070BD80F89424FFF7BB
:1017E800FFFAA1E7204600F061FDF0E710B590F898
:1017F800943404460068012B17D0012384F89434EC
:10180800C3685B0602D5637B012B09D003F056FA47
:10181800206803F0B1FE0023184684F8943410BD04
:10182800836B43F480338363F0E7022010BD00BF6D
:101838002DE9F04F066889B00446304603F0E8FE0B
:1018480010B109B0BDE8F08F0546206803F0B4FE7A
:101858000028F6D0D6F8083806F500622068C3F3E9
:101868000D230392C4F8D43403F0A6FE810723683D
:1018780003D55A6902F002025A61184603F09CFE29
:10188800C206236814D59A6922F010029A61376A51
:1018980007F4F01207F00F08B2F5802F00F0EE827F
:1018A800B2F5402F00F03F829A6942F010029A6127
:1018B800184603F081FE070300F1C981206803F090
:1018C8007BFE10F4802F206840F0688103F074FEDE
:1018D8000028C0F2DC80206803F06EFE010500F1EC
:1018E8009A80206803F068FE030114D522685369C2
:1018F80003F00063536194F8CC34002B40F0FC8172
:101908000121204684F8CC14536DC3F38303C4F833
:10191800D03400F0E3FC206803F04EFE0346206854
:10192800DF0400F1DE8003F047FE034620689D04D3
:1019380000F1C08003F040FE000700F12681206816
:1019480003F03AFE01061DD5B36923F08003B361A5
:101958002379012B16D906F53060224600EB431097
:1019680006F5326392F87B122432012907D11968EF
:1019780041F000611960196841F080411960203315
:101988008342EFD1206803F017FEC20241D52179C6
:10199800012920D906F512682746012505E00135F9
:1019A80008F120082437A94215D997F83C30D8F80F
:1019B8000020012BF3D1002AF1DA05F00F0187F896
:1019C8003B30206801EBC10104EB8101143103F0C5
:1019D8009DFC2179E3E72068436903F480134361A0
:1019E80003F0EAFD830221D4206803F0E5FD4000FE
:1019F80000F1C280206803F0DFFD41077FF521AFC9
:101A080023685D686A0700F15A825A682A435A6057
:101A180017E72068E4E7039B9B68DA0700F14B822D
:101A28002068436903F4006343615BE794F804C0EA
:101A3800BCF1010F25D906F532622346012103E0E6
:101A4800614503F124031CD093F87C020131156829
:101A580020320128F4D1002DF2DAD4F8D47487EAC0
:101A68001547FF07ECD483F87B02B06940F080008B
:101A7800B06170690506E3D4039A536843F40073B0
:101A880053602068436903F400134361ADE7039A88
:101A9800536823F00103536094F8CC34012B00F011
:101AA8003B812046FFF7E0FA2068436903F00043D2
:101AB800436111E703F0B0FD206803F067FA256879
:101AC800E07101F0E3F8E2790146284603F07CF87A
:101AD8002046FFF7B3FA2068436903F400534361D3
:101AE80028E7039A1021536823F00103536003F099
:101AF8002BF92079D8B106F510634FF67F3199603C
:101B080001351A682033854222F4001243F8202C4C
:101B1800C3F8E811D3F8E02122F40012C3F8E02159
:101B2800D3F8E02142F00062C3F8E021E7D1039A3C
:101B3800D36943F00113D361E37B002B40F0E080CD
:101B4800039942F22B034A6913434B610B6943F033
:101B58000B030B61D6F8003804F29C42206823F48A
:101B6800FE63C6F80038A17903F066FD2068436972
:101B780003F480534361D6E62046FFF781FA2068D4
:101B8800436903F08043436135E72046FFF752FA83
:101B98002068436903F008034361D1E603F018FDA8
:101BA8008146002800F0D2800495A04606F510670B
:101BB8004FF0000A2068254619F0010F09D14FEAB5
:101BC80059090AF1010A08F12408203719F0010F10
:101BD800F5D05FFA8AF4214603F00AFD10F0010FF0
:101BE800834612D00120039B0AF00F015A6B00FABA
:101BF80001F122EA01025A63B860A979814200F032
:101C0800638121462846FFF70BFA1BF0080F01D025
:101C18000823BB601BF0100F01D01023BB601BF022
:101C2800400F01D04023BB601BF0020F40F01B8126
:101C38001BF0800F40F0C18028685FEA590900F066
:101C480087800AF1010A08F124082037B4E72068E0
:101C580003F0B6FC074600283FF430AE06F53069BD
:101C6800A3464FF0000AF80708D47F080AF1010AD2
:101C780009F120090BF1240BF807F6D55FFA8AF36E
:101C880020681946049303F0ABFC10F0010F80465E
:101C980073D118F0080F5ED118F0100F02D010227F
:101CA800C9F8082018F0020F0FD07269100604D581
:101CB800039B5A6842F480625A609BF85722012AB3
:101CC80000F03D810223C9F8083018F0200F02D037
:101CD8002023C9F8083018F4005F03D04FF40053EC
:101CE800C9F808307F083FF4E9AD0AF1010A09F1A3
:101CF80020090BF1240BB6E72046FFF7B1F90AE6F5
:101D0800039AD2F8843043F00B03C2F88430536C42
:101D180043F00B0353641DE70021204684F8CC14DC
:101D280000F0DCFAC0E608EBC808082204F29C417F
:101D3800304603F0E9FBC7F30A1204EB8801236875
:101D4800D1F868020244C1F86822ADE52068BDE513
:101D58002C46049DBAE521680822C9F8082001F537
:101D68003062086C994902EB4A128842936800F283
:101D7800BE802046FFF744F98EE720680122C9F8A3
:101D8800082000F53062A17902EB4A12D0F840E051
:101D98000129936800F0C6808D498E4500F0DB80EC
:101DA800BAF1000F04D1D4F86422002A00F00281AD
:101DB80004992046FFF72AF96BE7D8E90921286832
:101DC80091423FF63AAFA2EB010ED8F81C3000F56D
:101DD800106C07909E450CEB4A1C28BF9E46DCF809
:101DE80018300EF1030E1FFA83FBBBEB9E0FC0F0F9
:101DF80095808346CDE905961646E14620E0D8F859
:101E08001C30224658469E4228BF1E46AB79009396
:101E1800B3B2D8F8201003F061FBD8F82810D8F82E
:101E28002030F01C31443344D8F82460C8F8281016
:101E3800C8F82030D9F818309BB2B3EB900F68D3AC
:101E4800B142A6EB0106DAD3DDE905962868079BBF
:101E58000AF00F0101248C40D3F8341821EA040158
:101E6800C3F83418E9E65146304602F06DFF98F899
:101E78001720012A77D00222BA60D9E647F6F07215
:101E880017423FF411AD08EBC808C7F30A123046F1
:101E980004EB88081746D8F8601203F035FBD8F829
:101EA80060323B44C8F86032D8F868323B44C8F81E
:101EB80068322368F8E42046FFF7D2F8B0E52046F8
:101EC800FFF7E2F82368A0E5D8E907020244C8F85A
:101ED8002020BAF1000F7FF494AE6A6A002A7FF4DA
:101EE80090AE05F29C42286803F0A6FB89E61B0425
:101EF8002DD54FF4004120469160FFF781F8A17974
:101F080001297FF4C9AE04F29C42206803F094FBD7
:101F1800C2E63246DDF81490069E28689142FFF426
:101F28008CAE94E7190726D528498E457FF6B1AEC1
:101F380018047FF5AEAE4FF400419160A9E6002287
:101F4800049920468BF85722FFF792F8BAE6204604
:101F5800FFF756F8D3E71804EDD499067FF528AFB4
:101F68002021916024E700222146284688F817207E
:101F7800FFF782F87FE7990602D52021916088E66D
:101F880012498E4501D91B04D5D41169DBF8742296
:101F9800C1F31201521ACBF86822BAF1000F7FF48C
:101FA80007AFD4F8641259B1D4F860121144C4F8D8
:101FB8006012FDE604F29C42514603F03DFBF7E651
:101FC80004F29C42012103F037FBF1E60A30544F3A
:101FD8000A31544F90F89424012A0DD0012210B5EB
:101FE80004460068617484F8942403F0B3FA00236B
:101FF800184684F8943410BD0220704701F00F0C85
:10200800090610B504460CEBCC004FEA800024D436
:1020180000F515714FF0000E2044214480F855E278
:10202800C2F30A0281F800C00B718A604A780AB1CB
:10203800A1F81AC0022B01D100234B7194F89434F3
:10204800012B13D00123206884F8943402F0AAFFEE
:102058000023184684F8943410BD00F114014FF0A1
:10206800010E2044214480F815E0D9E7022010BD74
:1020780001F00F02090602EBC20310B54FEA830311
:10208800044616D403F5157103440144002083F86F
:1020980055020A7094F89434012B15D00123206856
:1020A80084F8943402F0C4FF0023184684F894346A
:1020B80010BD03F1140103440144012058750A704E
:1020C80094F89434012BE9D1022010BD01F00F01DE
:1020D80001EBC10C4FEA8C0C10B500EB0C0E14464A
:1020E80000228EF854120CF515718EF85522CEF890
:1020F80064320144CEF86042CEF8682282790068E2
:10210800012A08BFCEF8704202F0F0FF002010BD8F
:1021180001F00F0101EBC10100EB8100D0F868026A
:10212800704700BF01F00F0101EBC10C4FEA8C0CA6
:1021380038B500EB0C0E1446002501228EF8141059
:102148000CF114018EF81520CEF820400144CEE998
:10215800093582790068012A08BFCEF8304002F0BC
:10216800C5FF002038BD00BF38B501F00F05037961
:10217800AB4230D30B0604461BD401EBC1018900E6
:1021880001F5157243188118002283F8552201239E
:102198000D708B7094F894249A421AD0206884F8B1
:1021A800943403F037F9C5B10023184684F8943401
:1021B80038BD05EBC50301229B0003F1140103445C
:1021C80001445A7501230D708B7094F894249A4237
:1021D800E4D1022038BD012038BD04F29C42A17927
:1021E800206803F029FADFE701F00F0238B5037918
:1021F80093422DD302EBC203090604464FEA830338
:1022080017D403F51571002503440144002083F811
:1022180055020A708D7094F89434012B16D001235E
:10222800206884F8943403F02DF9284684F89454EF
:1022380038BD03F1140100250344014401205875F9
:102248000A708D7094F89434012BE8D1022038BDBF
:10225800012038BD10B404681204636A29B9134315
:102268000020A3625DF8044B7047A06A013903EBB4
:10227800104C0AD000231846013304EB80008B422F
:10228800D0F804010CEB104CF5D104EB810442EAC0
:102298000C020020C4F804215DF8044B704700BF0D
:1022A800034600201B685962704700BF03464FF081
:1022B800000C09491A68604610B4012483F8CCC49C
:1022C800C3F8D84493695DF8044B43F00063936105
:1022D800536D19435165704703000010704700BFE4
:1022E80038B5104CE36813F0040FE36805D103F028
:1022F8000703181A18BF012038BD23F0070303434A
:10230800E360FFF721F8054605E0FFF71DF8401BDD
:10231800B0F57A7F04D863689B04F6D5002038BDF1
:10232800012038BD00480258024AD36843F0807340
:10233800D360704700480258334B30B4996A9C6A9E
:10234800DD6A14F47C7F5A6BC4F3051036D0C2F3EF
:10235800CC0205F0010501F0030107EE900A05FB28
:1023680002F20129B8EEE77A06EE902AFAEEE96A57
:1023780002D0022942D019B3DFED247A87EE876AAA
:102388001B6BC3F3080307EE903AF7EE005AF8EE1A
:10239800E77A77EEA67A77EEA57A67EE867A1A4B11
:1023A8001B6BC3F34623013307EE103AF8EEC76AF6
:1023B80087EEA67AFCEEC77A17EE900A30BC704713
:1023C8001A6892061DD51968F7EE005A104A1B6B59
:1023D800C1F3C101C3F30803CA4007EE903A06EE01
:1023E800102AF8EEE77AB8EEC66A77EEA66AC6EE65
:1023F800077A36EEA57A67EE877AD0E7DFED057AB9
:10240800BCE7DFED057AB9E7004402580024744AB6
:102418000090D00320BCBE4B0024744C002800F070
:10242800E681F8B503680446D9072ED5A4490A6998
:10243800896A02F03802102A00F00781182A00F091
:10244800FF806368B3F5803F00F02A81002B00F01D
:102458006881B3F5A02F9A4B1A6800F0858222F4A0
:1024680080321A601A6822F480221A60FEF76CFF24
:10247800934E054605E0FEF767FF401B642800F20F
:102488004E8133689B03F6D523689D0700F18A8047
:10249800D90633D58A4A1369926A03F03803082BA0
:1024A80000F0E380182B00F0DB80E369844D002BFB
:1024B80000F06F812B6843F080032B60FEF744FF28
:1024C800064605E0FEF740FF801B022800F2278140
:1024D8002B68DB05F6D5FEF74FFF41F20303226AAE
:1024E800984200F266826B68202A23F0F8430CBFFA
:1024F80043F0804343EA82636B6023681D0716D567
:1025080063696F4D002B00F022816B6F43F001036C
:102518006B67FEF719FF064605E0FEF715FF801BFF
:10252800022800F2FC806B6F9807F6D523689A069C
:1025380016D5A369624D002B00F01A812B6843F46D
:1025480080532B60FEF700FF064605E0FEF7FCFE11
:10255800801B022800F2E3802B689F04F6D52368CD
:10256800590700F1A380636AD3B1554D2A6902F077
:102578003802182A00F0AB81022B2B6823F08073F5
:102588002B6000F03F81FEF7DFFE044605E0FEF712
:10259800DBFE001B022800F2C2802B689B01F6D4E8
:1025A8000020F8BD464A1369926A13F038032DD10A
:1025B800434BE2681B68590701D5002A4ED0404DAD
:1025C8002B6823F0190313432B60FEF7BDFE064664
:1025D80005E0FEF7B9FE801B022800F2A0802B68F8
:1025E8005B07F6D5FEF7C8FE41F20303226998425D
:1025F8006B6800F2F58023F47C33402A0CBF43F467
:10260800003343EA02336B60236841E7182B00F07C
:10261800E3802B4DE2682B68002A00F0CC8023F081
:10262800190313432B60FEF78FFE064604E0FEF7FE
:102638008BFE801B022872D82B685F07F7D5D1E77D
:1026480001F0030102297FF4FCAE1D4A12689203CF
:102658007FF51BAF6268002A7FF417AF0120F8BD31
:1026680002F00302012A7FF420AF154B1B68DA053C
:1026780002D5E369802BF1D1FEF77EFE41F2030318
:10268800226A984200F2B580202A00F0A0810C4905
:102698004B6823F0F84343EA82634B6023682DE7D5
:1026A800074A136843F480331360DFE6054D2B684F
:1026B80043F480732B60FEF747FE064609E000BF2F
:1026C8000044025800480258FEF73EFE801B64286A
:1026D80025D82B68DA05F7D5A368012B00F071819E
:1026E800002B00F04D81052BA34B1A6F00F0788169
:1026F80022F001021A671A6F22F004021A67FEF725
:1027080023FE9D4E41F28837054604E0FEF71CFE85
:10271800401BB84203D8336F9B07F7D523E7032044
:10272800F8BD954D2B6823F480332B602B6823F478
:1027380080232B60FEF708FE064604E0FEF704FE41
:10274800801B6428EBD82B689F03F7D49CE66B6F3B
:1027580023F001036B67FEF7F7FD064604E0FEF77A
:10276800F3FD801B0228DAD86B6F9907F7D4DDE6F2
:102778002B6823F480532B60FEF7E6FD064604E041
:10278800FEF7E2FD801B0228C9D82B689804F7D40D
:10279800E5E62B6823F080032B60FEF7D5FD06469F
:1027A80004E0FEF7D1FD801B0228B8D82B68DF05AE
:1027B800F7D42368A2E623F001032B60FEF7C4FDDB
:1027C800064604E0FEF7C0FD801B0228A7D82B6848
:1027D8005807F7D423685BE690077FF41AAFE7E65B
:1027E80023F0FE4343EA02636B60236850E601204E
:1027F80070476149CB6823F07C5343EA0263CB609E
:1028080023687BE6FEF7A0FD064604E0FEF79CFD84
:10281800801B022883D82B689901F7D4A96A574BE3
:10282800A26A0B401343E26A43EA0213AB62216BCC
:10283800D4E90D320139013B013AC1F308015B02C9
:1028480012049BB202F4FE021343E26B013A0B43FB
:10285800120602F0FE4213432B63EB6A23F00103D6
:10286800EB626B6BA26C6FF3CF0343EAC2036B633B
:10287800EB6A226C23F00C031343EB62EB6A626C85
:1028880023F002031343EB62EB6A43F48033EB62F9
:10289800EB6A43F40033EB62EB6A43F48023EB62A8
:1028A800EB6A43F00103EB622B6843F080732B6003
:1028B800FEF74AFD304D044605E0FEF745FD001BD6
:1028C80002283FF62CAF2B689A01F6D568E6012B53
:1028D800AA6A286B3FF4C2AE02F00303A16A8B42D6
:1028E8007FF4BCAEC2F30512E36A9A427FF4B6AE37
:1028F800236BC0F30802013B9A427FF4AFAE636BCF
:10290800C0F34622013B9A427FF4A8AEA36BC0F302
:102918000642013B9A427FF4A1AEE36BC0F3066026
:10292800013B98427FF49AAE6B6BA26CC3F3CC0365
:102938009A423FF435AE104AD36A23F00103D362BA
:10294800FEF702FD0546FEF7FFFCA842FBD00A4A47
:10295800A16C536B6FF3CF0343EAC1035363D36A8C
:1029680043F00103D3621BE642F480221A601A681E
:1029780042F480321A6079E5004402580CFCFFFFEB
:102988001B4D41F288372B6F23F001032B672B6F08
:1029980023F004032B67FEF7D7FC064605E0FEF795
:1029A800D3FC801BB8423FF6BAAE2B6F9807F6D41B
:1029B800D9E5EB6823F07C5343EA0263EB602368B4
:1029C8009CE50B4A136F43F00103136797E6084A27
:1029D800536823F0F84343F08043536023688DE540
:1029E80042F004021A671A6F42F001021A6786E67B
:1029F800004402580C4A136903F03803102B0DD019
:102A0800182B09D063B913689B060BD513680748C0
:102A1800C3F3C103D8407047FFF78EBC0448704722
:102A28000448704701487047004402580090D0039A
:102A380040787D0100093D00002800F00E818D4A94
:102A4800136803F00F038B422DE9F04104460D464D
:102A58000CD2136823F00F030B431360136803F0C1
:102A68000F038B4202D00120BDE8F081236858078C
:102A78000BD5814920698A6902F07002904204D915
:102A88008A6922F0700202438A6119070BD57A49D4
:102A98006069CA6902F07002904204D9CA6922F0DA
:102AA80070020243CA61DA060BD57349A069CA6984
:102AB80002F4E062904204D9CA6922F4E062024357
:102AC800CA619F060BD56C49E0690A6A02F0700278
:102AD800904204D90A6A22F0700202430A629E07F1
:102AE80003F0010240F1AB80634EE068B16901F088
:102AF8000F01884204D9B16921F00F010143B16186
:102B0800002A30D05C4AA168936923F470630B43B0
:102B1800936161681368022900F0A180032900F01D
:102B28009880012900F0A1805F079CD5524E41F2A0
:102B38008838336923F007030B433361FEF704FC3D
:102B4800074605E0FEF700FCC01B404500F28B80FD
:102B58003369626803F03803B3EBC20FF2D123681C
:102B68009E0706D5E06844498A6902F00F0282424E
:102B780069D840490A6802F00F02AA420AD90A68CD
:102B880022F00F022A430A600A6802F00F02AA42E2
:102B98007FF469AF58070BD5374920698A6902F075
:102BA8007002904204D28A6922F0700202438A615C
:102BB80019070BD530496069CA6902F07002904262
:102BC80004D2CA6922F070020243CA61DA060BD540
:102BD8002949A069CA6902F4E062904204D2CA692C
:102BE80022F4E0620243CA619B060BD5224AE169DE
:102BF800136A03F07003994204D2136A23F0700336
:102C08000B431362FFF7F6FE1B4A03461B48916904
:102C18009269C1F303211A4D02F00F02194C415C6D
:102C2800825C01F01F01184802F01F02CB400068C7
:102C38002B60D3402360BDE8F041FEF723BB002A98
:102C48007FF460AF95E78A6922F00F0202438A6138
:102C58008FE79A013FF56AAF05E7012070479803AF
:102C68003FF564AFFFE60320FEE6DB053FF55EAF08
:102C7800F9E600BF002000520044025854680008DA
:102C8800040000240000002470000024184A38B50D
:102C9800136903F03803102B24D0182B09D01BBB61
:102CA80013689B0622D51268124BC2F3C102D340A7
:102CB80002E0FFF741FB03460D480F4C826980692B
:102CC800C2F303220D4D00F00F000D49A25C205CF9
:102CD80002F01F0200F01F00D34023FA00F00B603F
:102CE800286038BD074BE7E7074BE5E7014BE3E70B
:102CF800004402580090D0035468000800000024E3
:102D08000400002440787D0100093D00F8B5364CE8
:102D180006460F46236823F080632360FEF714FB02
:102D2800054604E0FEF710FB401B022856D823682E
:102D38001A01F7D4A36A326823F47C3343EA0233D6
:102D4800A362D6E90232013B013A5B0212049BB24C
:102D580002F4FE0213437268013AC2F308021343F5
:102D68003269013A120602F0FE421343A363E36A92
:102D7800726923F0C0031343E362E36AB26923F084
:102D880020031343E362E36A23F01003E362E36B77
:102D9800F2696FF3CF0343EAC203E363E36A43F0E4
:102DA8001003E362E36ADFB1012F0CBF43F4801321
:102DB80043F40013E3620C4C236843F08063236000
:102DC800FEF7C2FA054604E0FEF7BEFA401B0228E9
:102DD80004D823681B01F7D50020F8BD0320F8BDEF
:102DE80043F40023E362E6E700440258F8B5364CA2
:102DF80006460F46236823F080532360FEF7A4FAA3
:102E0800054604E0FEF7A0FA401B022856D82368BE
:102E18009A00F7D4A36A326823F07C7343EA02531A
:102E2800A362D6E90232013B013A5B0212049BB26B
:102E380002F4FE0213437268013AC2F30802134314
:102E48003269013A120602F0FE4213432364E36A30
:102E5800726923F440631343E362E36AB26923F4BB
:102E680000731343E362E36A23F48073E362636CE1
:102E7800F2696FF3CF0343EAC2036364E36A43F47E
:102E88008073E362E36ADFB1012F0CBF43F40003F0
:102E980043F08073E3620C4C236843F08053236053
:102EA800FEF752FA054604E0FEF74EFA401B0228E8
:102EB80004D823689B00F7D50020F8BD0320F8BD8F
:102EC80043F48003E362E6E7004402582DE9F8433F
:102ED800D0E9003204461D0103F0006625D5816E55
:102EE800B1F5001F00F0A28500F2AC86002900F0C1
:102EF8000086B1F5801F40F0A986A949896A01F0CA
:102F08000301032900F0A28602210830FFF7FEFE24
:102F1800D4E90032002840F01087A16EA04D0026A9
:102F2800286D20F4401001432965D8050AD5A16D04
:102F3800042906D8DFE811F02C048705650531045B
:102F4800310401263546990524D5E16D802900F024
:102F5800BA8500F28A86002900F09E85402940F053
:102F68008B868F49896A01F00301032900F0848662
:102F7800002104F10800FFF7C9FE0546D4E9003234
:102F8800002D40F09185864FE06D396D21F4E07198
:102F9800014339655F0528D5D4F8A810B1F5800F2D
:102FA80000F0618500F24286002900F0A985B1F59C
:102FB800001F40F043867A49896A01F0030103291A
:102FC80000F03C86002104F10800FFF79FFE05464B
:102FD800D4E90032002D40F05885714FD4F8A8008C
:102FE800B96D21F460010143B965180528D5D4F8F5
:102FF800AC10B1F1007F00F0EF8400F22A860029BE
:1030080000F05585B1F1807F40F02B866449896ACC
:1030180001F00301032900F02486002104F10800CF
:10302800FFF774FE0546D4E90032002D40F0E6842F
:103038005B4FD4F8AC00B96D21F0E0610143B9658C
:10304800990118D5E16C202900F0048400F2248647
:1030580039B1102940F023865148C16A41F4003142
:10306800C162002D40F0BD834D4FE06CF96C21F03A
:1030780030010143F964DF0426D5216EB1F5005F04
:1030880000F0958400F2FC85002900F04085B1F538
:10309800805F40F0FD854249896A01F003010329F8
:1030A80000F0F685002104F10800FFF72FFE054621
:1030B800D4E90032002D40F08C84394F206E396DF0
:1030C80021F4E04101433965980424D5616EB1F5D6
:1030D800003F00F0958300F27F8591B1B1F5803F04
:1030E80040F084852E49896A01F00301032900F024
:1030F8007D85012104F10800FFF708FE0546D4E9A3
:103108000032002D40F00D85254F606E396D21F499
:10311800E02101433965590426D5D4F8B010B1F13E
:10312800005F00F0808300F2738591B1B1F1805F98
:1031380040F078851A49896A01F00301032900F0F3
:103148007185012104F10800FFF7E0FD0546D4E987
:103158000032002D40F0E284114FD4F8B000B96D70
:1031680021F0E0410143B9651F040DD5216FB1F18C
:10317800805F00F01C82B1F1005F00F09A850029A1
:1031880000F01A8201263546D8011AD5A16C032908
:1031980000F2B585DFE811F00B000600AA030B006A
:1031A800004402583C48C16A41F40031C162002D14
:1031B80040F01D83384FA06CF96C21F003010143E6
:1031C800F964590200F14482D8072FD5E16F282904
:1031D8002AD8DFE811F00E02290029002900290069
:1031E800290029002900FF012900290029002900B8
:1031F800290029002900D3042900290029002900D1
:103208002900290029000E02290029002900290087
:103218002900290029000E02290029002900290077
:103228002900290029000E0201263546990724D5D0
:10323800A16F052900F25F85DFE811F0150006008F
:103248008B041500150015001349896A01F0030164
:10325800032900F05085012104F10800FFF756FD0D
:103268000546D4E90032002D40F028840A4FA06FAB
:10327800796D21F00701014379655F0728D5D4F8F6
:103288009410052900F23385DFE811F017000800D3
:10329800500417001700170000440258AE49896A05
:1032A80001F00301032900F02285012104F108003F
:1032B800FFF72CFD0546D4E90032002D40F00184CB
:1032C800A54FD4F89400B96D21F007010143B96501
:1032D800980626D5D4F89010B1F1005F00F0198354
:1032E80000F2888491B1B1F1805F40F08D849A49F1
:1032F800896A01F00301032900F08684002104F1A2
:103308000800FFF703FD0546D4E90032002D40F020
:10331800BF83914FD4F89000796D21F0E0410143CB
:103328007965590626D5D4F89C10B1F5006F00F0E0
:10333800A48200F2438491B1B1F5806F40F04884D3
:103348008549896A01F00301032900F041840021BD
:1033580004F10800FFF7DAFC0546D4E90032002D35
:1033680040F098837C4FD4F89C00B96D21F4E0516B
:103378000143B9651F0626D5D4F8A010B1F5804FD2
:1033880000F0DA8200F20D8491B1B1F5005F40F0EF
:1033980012847149896A01F00301032900F00B8442
:1033A800002104F10800FFF7B1FC0546D4E900321A
:1033B800002D40F0B983684FD4F8A000B96D21F40E
:1033C80060410143B96518070BD5D4F88400B0F5FE
:1033D800805F00F0D882604F796D21F4405101433D
:1033E8007965D9060BD5D4F89800B0F5807F00F040
:1033F800B682594FB96D21F440710143B9651F0375
:1034080024D5D4F8A410B1F5803F00F04982B1F575
:10341800003F10D0002940F0DA804F48806A00F061
:103428000300032800F0D38004F10800FFF76EFCC6
:103438000546D4E90032002D40F05983464FD4F8B0
:10344800A400B96D21F440310143B96558030FD583
:10345800D4F88810B1F5001F00F03582B1F5401F8F
:1034680000F0D780B1F5801F00F0CE8001263546E8
:10347800D9031ED5216D002900F0A981B1F5803F3F
:103488007FD13549896A01F00301032979D00221E6
:1034980004F10800FFF73AFC0546D4E90032002D94
:1034A80040F09D812C4F206DF96C21F4803101434F
:1034B800F9649F0069D498030ED5D4F88010B1F54B
:1034C800807F00F0778140F2948121F48070B0F51C
:1034D800007F00F074810126D90206D51E48656F69
:1034E800016D21F0004129430165DF0007D51A4825
:1034F800D4F8B850016921F48041294301619D0243
:1035080006D51548E56E016D21F0807129430165E6
:10351800580009D51049086920F400400861086975
:10352800D4F8BC5028430861002B06DA0A48656DB8
:10353800C16C21F040512943C164190207D50649DD
:10354800D4F88C004B6D23F4400303434B65D30739
:1035580000F1C08002E000BF00440258970700F164
:10356800CC80550700F1DC80100700F1EC80D10613
:1035780000F1FC8093065BD4301E18BF0120BDE823
:10358800F88301269F00354695D5B049896A01F030
:103598000301032900F0A083022104F12800FFF7AA
:1035A80025FC0028D4E9003218BF012683E7A74884
:1035B800C16A41F40031C162002D40F01681A34F69
:1035C800206F396D21F0405101433965DCE5012652
:1035D80035463BE79D49896A01F0030103293FF419
:1035E80023AE012104F10800FFF790FB0546D4E95A
:1035F8000032002D40F07882944FE06F796D21F011
:1036080038010143796511E69048C16A41F40031F7
:10361800C162002D40F0E7808C4FD4F88800796DA6
:1036280021F440110143796522E7012692060CD561
:10363800864B9B6A03F00303032B06D0022104F197
:103648002800FFF7D3FB002896D00120BDE8F883B7
:103658007F4F3B6843F480733B60FDF775FE8046FF
:1036680006E0FDF771FEA0EB0800642800F21B835A
:103678003B68DA05F5D5002D40F01683734AD4F877
:10368800B430116F594011F4407F0BD0116F106F97
:1036980021F4407140F480301067106F20F48030BE
:1036A80010671167B3F5807F00F0338303F440722D
:1036B800B2F5407F00F0448364490A6922F47C52E1
:1036C8000A616248C3F30B01076F3943D4E900323A
:1036D800016779E55D4B9B6A03F00303032B00F058
:1036E8000083002104F10800FFF710FB626800283E
:1036F80018BF032697077FF534AF544B9B6A03F036
:103708000303032B00F0F182012104F10800FFF705
:10371800FDFA6268002818BF032655077FF524AF15
:103728004A4B9B6A03F00303032B00F0D882022163
:1037380004F10800FFF7EAFA6268002818BF0326B8
:1037480010077FF514AF414B9B6A03F00303032B6B
:1037580000F0C982002104F12800FFF747FB6268E6
:10376800002818BF0326D1067FF504AF374B9B6AA4
:1037780003F00303032B3FF458AF012104F12800A1
:10378800FFF734FB626800283FF4F4AE03264DE7E8
:103798002E48C16A41F40031C1623546002D40F01F
:1037A80042812A4FA06D396D21F007010143396527
:1037B800FFF7C9BB254FF86A40F40030F862EDB94D
:1037C800224D686D20F440700143696584E61F4806
:1037D800C16A41F40031C162002D3FF463AE2E4648
:1037E80067E62E4647E42E4642E62E46CCE42E46B1
:1037F800E7E400297FF46FAE002DE1D02E466BE69A
:103808001249896A01F00301032900F0EF810121BF
:1038180004F12800FFF7EAFA0546D4E90032002D42
:103828003FF472AC7DE10949896A01F0030103297B
:1038380000F0F881012104F12800FFF7D7FA0546C6
:10384800D4E90032002D3FF487AC67E10044025808
:1038580000480258C849896A01F00301032900F0A9
:103868001E82022104F10800FFF750FA0546D4E948
:103878000032002D3FF4F8ABB3E7BF49896A01F085
:103888000301032900F0A481022104F12800FFF7B5
:10389800ADFA0546D4E90032002D3FF463ADF9E0F6
:1038A800B549896A01F0030103293FF490AE02216A
:1038B80004F12800FFF79AFA0546D4E90032002DF2
:1038C8003FF4BCAD13E1AC49896A01F00301032957
:1038D8003FF4CCAD012104F12800FFF787FA054633
:1038E800D4E90032002D3FF497AE7CE7A249896AFB
:1038F80001F00301032900F00282022104F108000B
:10390800FFF704FA0546D4E90032002D3FF452AC23
:103918006DE79949896A01F00301032900F0748170
:10392800022104F12800FFF761FA0546D4E90032C4
:10393800002D3FF4EEACABE08F49896A01F003013A
:10394800032900F03881022104F12800FFF74EFA1C
:103958000546D4E90032002D3FF42DADE4E0864958
:10396800896A01F00301032900F0D081022104F1E2
:103978002800FFF73BFA00282368D4F8980018BFFE
:103988000126626835E57C49896A01F0030103294B
:1039980000F0B981022104F12800FFF727FA002876
:1039A8002368D4F8840018BF0126626813E57249B9
:1039B800896A01F00301032900F06A81002104F1FA
:1039C8002800FFF713FA0546D4E90032002D3FF42A
:1039D80074AB2E46FFF778BB6749896A01F003018B
:1039E800032900F03E81002104F12800FFF7FEF9C9
:1039F8000546D4E90032002D3FF41AAB2E46FFF7F6
:103A08001FBB5D49896A01F0030103293FF499AAA4
:103A1800002104F12800FFF7E9F90546D4E900324E
:103A2800002D3FF4BEAE2E46FFF78DBA5249896A83
:103A380001F00301032900F0098102212830FFF772
:103A4800D5F9FFF765BA4C49896A01F003010329E2
:103A58003FF477AA002104F10800FFF757F905465B
:103A6800D4E900329AE64449896A01F0030103293E
:103A780000F0E480002104F12800FFF7B7F90546BB
:103A8800D4E90032002D3FF4A8AA2E46FFF7ADBABC
:103A98002E4646E42E466DE43748C16A41F40031AB
:103AA800C162002D3FF46FAA2E46FFF773BA324861
:103AB800C16A41F40031C162FFF7B7BA2E46FFF779
:103AC800DCBB2E4604E42C49896A01F00301032972
:103AD80000F0D280002104F12800FFF787F905469D
:103AE800D4E90032FFF74CBA2E46FFF79FBB2E46AB
:103AF800ACE4214DE86A40F40030E862FFF70EBA02
:103B08001D48C16A41F40031C162FFF763BA1A481F
:103B1800C16A41F40031C162FFF7CCBA2E46FFF703
:103B280023BB2E46FFF7F7BA2E464CE41249896AA2
:103B380001F00301032900F0DA80012104F12800D3
:103B4800FFF754F90546D4E90032002D3FF4B8AB2D
:103B5800B7E70949896A01F00301032900F0CB801E
:103B6800012104F12800FFF741F90546D4E90032A4
:103B7800002D3FF47BABA1E7004402587849896ADD
:103B880001F0030103293FF44FAB012104F12800A0
:103B9800FFF72CF90546D4E90032002D3FF42CAD8F
:103BA800A2E721F40050B0F5004F3FF401ACB1F5A5
:103BB800C04F3FF4FDAB0126354604E421F4806094
:103BC800B0F5805F3FF4CBABB1F5406F3FF4C7ABC6
:103BD80001263546FFF7CEBB21F48030B0F5802FA3
:103BE8003FF48FAAB1F5403F3FF48BAA0126354632
:103BF800FFF791BA21F08050B0F1804F3FF486ABC7
:103C0800B1F1405F3FF482AB01263546FFF789BB2F
:103C180021F08050B0F1804F3FF49BAAB1F1405F92
:103C28003FF497AA01263546FFF79EBAB1F5C00FB3
:103C38003FF4D0A9B1F5000F3FF4CCA901263546D1
:103C4800FFF7D3B9B1F5401F3FF468A90126FFF784
:103C58006CB9B1F1407F3FF4E8A9B1F1806F3FF44E
:103C6800E4A901263546FFF7EBB9C0293FF488A936
:103C7800B1F5807F3FF484A901263546FFF78AB95C
:103C8800B1F5405F3FF416AAB1F5804F3FF412AA90
:103C980001263546FFF718BA30293FF4E2A9012674
:103CA8003546FFF7E8B903252E46D4E90032FFF779
:103CB8008BBA2B49896A01F0030103293FF462AAF0
:103CC800012104F10800FFF721F80546D4E9003284
:103CD800002D3FF474AC88E50126FFF7ECBB012604
:103CE80042E401263AE4012641E4012639E40126AA
:103CF8003546FFF7EDBA01263546FFF7BEBA01266D
:103D08003546FFF75EBA0126FFF765BB0126FFF7C8
:103D180070BBFDF719FBDFF84880074641F2883988
:103D280004E0FDF711FBC01B484513D8D8F87030E4
:103D38009B07F6D5D4F8B430B8E40326FFF7F5B8F6
:103D48000748084A016902EA131221F47C510A4320
:103D58000261B6E40326D4E900323546FFF734BAE7
:103D680000440258CFFFFF00036A026A23F00203EF
:103D780022F0010270B40262184C426885692C4036
:103D88000D682C438D682B43154DA8420FD005F5BF
:103D98008065A8420BD005F57055A84207D005F5F7
:103DA8008065A84203D005F58065A8420FD1056A51
:103DB80023F0080322F4407225F004050562CD685B
:103DC8002B43D1E9056546EA050C4CEA020249682D
:103DD800426084614163036270BC70478CFFFEFFE0
:103DE80000000140036A026A23F4007322F480721F
:103DF80070B40262194C4268C5692C400D682C43A6
:103E08008D6843EA0523164DA8420FD005F5806555
:103E1800A8420BD0134E05F58045A84218BFB04202
:103E28000DD005F58065A84211D108E0056A23F494
:103E3800006325F480650562CD6843EA052322F412
:103E48004052D1E9056546EA050C42EA0C12496878
:103E58004260C461C163036270BC70478CFFFEFF9F
:103E68000000014000400140036A026A23F4005345
:103E780022F4805270B40262134A4468C5692A4029
:103E88000D6842EA05228D6843EA05330F4DA842C2
:103E98000ED005F58065A8420AD00D4E05F580457F
:103EA800A84218BFB04203D005F58065A84204D1E6
:103EB80024F480444D6944EA851449684460C26129
:103EC8000164036270BC7047FF8CFFFE0000014074
:103ED80000400140036A026A23F4003322F480326E
:103EE80070B40262134A4468456D2A400D682A433B
:103EF8008D6843EA0543104DA8420ED005F580654C
:103F0800A8420AD00D4E05F58045A84218BFB04218
:103F180003D005F58065A84204D124F480344D69A6
:103F280044EA05244968446042658165036270BCBF
:103F3800704700BF8FFFFEFF0000014000400140B6
:103F4800036A026A23F4001322F4801270B4026236
:103F5800134A4468456D2A400D6842EA05228D6877
:103F680043EA05530F4DA8420ED005F58065A842D7
:103F78000AD00D4E05F58045A84218BFB04203D0BF
:103F880005F58065A84204D124F480244D6944EAEB
:103F98008524496844604265C165036270BC704706
:103FA800FF8FFFFE000001400040014010B494461E
:103FB800026A046A24F0100404620F4CA04215D06F
:103FC80004F58064A04211D0090122F0A0025DF836
:103FD800044B01F0A0011143826922F4407242EAC5
:103FE8000C2263F30F32826101627047046A24F085
:103FF80040040462E8E700BF0000014010290AD825
:10400800DFE801F019090909560909096E090909C2
:104018005E090909660090F84330012B71D10B1F26
:104028000C2B65D8DFE803F048646464606464645A
:1040380050646464580090F83E30012B61D102232B
:1040480080F83E30036801F01F010122186A8A4097
:1040580020EA020010B41862334C196AA34242EAFB
:1040680001021A6248D0314A934245D002F5705293
:10407800934241D002F58062934244D002F58062B7
:10408800934240D0B3F1804F02D0294A93423FD1A6
:104098009968284A0A40062A06D0B2F5803F03D01C
:1040A8001A6842F001021A6000205DF8044B70475C
:1040B80090F83F30012B24D1022380F83F30C1E72C
:1040C80090F84130012B1CD1022380F84130B9E728
:1040D80090F84230012B14D1022380F84230B1E726
:1040E80090F84030012B0CD1022380F84030A9E72A
:1040F800022380F84330A5E75A6C42F400425A6420
:10410800C6E7012070475A6C42F400425A64C7E778
:10411800094902F58062934218BF8B42B8D002F574
:1041280080529342BCD1B3E7000001400004014033
:104138000004004007000100000C0040036801F083
:104148001F0C012210B402FA0CF21C6A24EA0204C1
:10415800354A1C621C6A1C62344CA34218BF934245
:1041680004F570540CBF01220022A34208BF42F09C
:10417800010204F58064A34208BF42F0010212B9AB
:104188002B4A93420CD11C6A2A4A224042B91C6A23
:1041980040F24442144203D15A6C22F400425A6459
:1041A8001C6A244A224042B91C6A40F24442144222
:1041B80003D11A6822F001021A6010290AD8DFE830
:1041C80001F010090909170909091E090909250932
:1041D80009092C00012380F8433000205DF8044BC6
:1041E8007047012380F83E3000205DF8044B70478B
:1041F800012380F83F3000205DF8044B704701230D
:1042080080F8403000205DF8044B7047012380F8A7
:10421800413000205DF8044B7047012380F842309C
:1042280000205DF8044B7047000001400004014085
:104238000048014011111100FFF7E0BEFFF77EBFF3
:1042480010290AD8DFE801F09A0909091F090909A4
:1042580085090909AE090909750090F8432090F805
:104268004730012ADBB272D1012B70D10B1F0C2B06
:1042780000F2AC80DFE803F010AAAAAA76AAAAAADC
:104288009FAAAAAA660090F83F2090F84530012A14
:10429800DBB25CD1012B5AD10222036880F83F209F
:1042A80080F84520DA6842F00402DA604A4A0120C0
:1042B80001F01F01B3F1804F18BF934200FA01F1DA
:1042C800186A0CBF0122002220EA010030B4434CD6
:1042D800434DA34208BF42F0010204F5806418620E
:1042E800A34208BF42F001023E481C6AAB4208BF25
:1042F80042F001022143834208BF42F00102A0F5C7
:104308006C401962834208BF42F0010212B9364A72
:10431800934207D19968354A0A40062A06D0B2F571
:10432800803F03D01A6842F001021A60002030BCB6
:10433800704790F8423090F84720DBB2012A06D146
:10434800012B04D1022380F8423080F84730012045
:10435800704790F8402090F84630012ADBB2F6D139
:10436800012BF4D10223022280F84030036880F840
:104378004620DA6842F00802DA6097E790F83E20B3
:1043880090F84430012ADBB2E1D1012BDFD10222BF
:10439800036880F83E2080F84420DA6842F0020280
:1043A800DA6083E790F8412090F84730012ADBB2C1
:1043B800CDD1012BCBD10222036880F8412080F8AF
:1043C8004720DA6842F01002DA606FE7022380F8CB
:1043D800433080F84730BAE700000140000400404D
:1043E800000C0040000401400040014007000100AB
:1043F8000C2908D8DFE801F0120707070F0707079D
:104408000C0707070900002070470368186C7047FD
:104418000368D86B70470368986B70470368586BDC
:10442800704700BF704700BF704700BF704700BFAC
:10443800704700BF036870B5DE6805461C69A207AF
:1044480001D5B1075AD4630701D5700743D42107B2
:1044580001D532072DD4E00601D5F10616D4E207BE
:1044680001D5F30763D414F4025F0AD0300666D48A
:10447800600601D5710673D4A20601D5B3064DD4E2
:1044880070BDE205F4D5330662D4F1E72B686FF00E
:10449800100228461A6108222A77DB6913F4407F44
:1044A8006FD1FFF7C1FF2846FFF7C0FF00232B7726
:1044B800D5E72B686FF0080228461A6104222A778C
:1044C800DB699B075AD1FFF7AFFF2846FFF7AEFF1E
:1044D80000232B77BFE72B686FF0040228461A6188
:1044E80002222A779B6913F4407F44D1FFF79CFF8F
:1044F8002846FFF79BFF00232B77A8E76FF00202FF
:104508001A61012202779B699A0731D1FFF78CFF64
:104518002846FFF78BFF00232B7794E72B686FF073
:10452800200228461A61BDE8704000F0C1BA2B6825
:104538006FF0010228461A61FFF774FF93E72B68B2
:104548006FF4025228461A6100F0B4FAE1058FD5DB
:104558002B686FF4807228461A6100F0ADFA87E77D
:104568002B686FF0400228461A61FFF761FF83E766
:10457800FCF73AFBCFE7FCF737FBBCE7FCF734FB6B
:10458800A6E7FCF731FB91E7F0B5354AB0F1804F6B
:10459800344DA0EB02020368A0EB050E4C69B2FA99
:1045A80082F28F68BEFA8EFE0E684FEA52124FEA08
:1045B8005E1E1FD0F2B9DFF8B8C0604537D00CF5E1
:1045C800806C604533D00CF5806C604512D0BEF12C
:1045D800000F0FD1244D254A904218BFA8422AD077
:1045E80002F58062904226D023F08003C76286627B
:1045F8001C4314E04D6823F07003D1F80CC02B4322
:10460800C762866223F4407343EA0C0323F08003F5
:104618001C4312B9BEF1000F16D00B69036303687F
:10462800012243F00403036042610460F0BD23F0FB
:1046380070034A681343CA6823F44073C76213437C
:10464800866223F080031C43084A074B984218BF30
:104658009042E2D003F500639842DED0DFE700BF66
:1046680000000140000401400040014000440140B6
:104678000004004070B310B590F83D30044603F0D4
:10468800FF0213B32146022384F83D3051F8040B8E
:10469800FFF77AFF0123002084F8483084F83E3081
:1046A80084F83F3084F8403084F8413084F8423050
:1046B80084F8433084F8443084F8453084F8463030
:1046C80084F8473084F83D3010BD80F83C20FCF772
:1046D80073F8D7E70120704770B310B590F83D30F4
:1046E800044603F0FF0213B32146022384F83D3049
:1046F80051F8040BFFF748FF0123002084F84830E5
:1047080084F83E3084F83F3084F8403084F84130F3
:1047180084F8423084F8433084F8443084F84530D3
:1047280084F8463084F8473084F83D3010BD80F86E
:104738003C20FBF7FDFFD7E701207047036A026AB8
:1047480023F0200322F0100270B402621A4C42686F
:1047580085692C400D6844EA05248D6843EA0513F1
:10476800164DA8420FD005F58065A8420BD0144E0F
:1047780005F58045A84218BFB0420DD005F5806503
:10478800A84211D108E0056A23F0800325F040050E
:104798000562CD6843EA051322F44062D1E9056554
:1047A80046EA050C42EA8C024968426084618163EA
:1047B800036270BC704700BFFF8CFFFE0000014021
:1047C8000040014038B590F83C30012B7CD00123E3
:1047D80004460D4680F83C30142A0CD8DFE802F075
:1047E800220B0B0B320B0B0B430B0B0B530B0B0B53
:1047F800640B0B0B10000120002384F83C3038BDFB
:104808000068FFF79DFB2A69436D43F40063436525
:10481800436D23F480634365436D43EA0223436594
:104828000020E9E70068FFF79FFA2A69836943F0E7
:1048380008038361836923F0040383618369134355
:104848008361EDE70068FFF779FF2A69836943F41C
:1048580000638361836923F480638361836943EA26
:1048680002238361DCE70068FFF7BCFA2A69C369A1
:1048780043F00803C361C36923F00403C361C36938
:104888001343C361CCE70068FFF7EEFA2A69C369EE
:1048980043F40063C361C36923F48063C361C369DC
:1048A80043EA0223C361BBE70068FFF713FB2A69E9
:1048B800436D43F008034365436D23F004034365E8
:1048C800436D13434365ABE7022038BDF0B42B4D6D
:1048D80094462B4F451B066AC71B046AB5FA85F533
:1048E80024F00104B7FA87F76D097F09046295B9C6
:1048F8008FB9244A904226D002F58062904222D095
:10490800214A90420BD1026A22F0040202628469B1
:1049180044F001020CE0026A22F004020262B0F1E3
:10492800804F846900D0DDB124F0030242EA0C0212
:1049380026F00A0401F00A0163F307122143826199
:104948000162F0BC7047026A22F0040202628469C4
:104958000E4A9042E8D002F594329042E4D0D7E76C
:104968000B4A9042E0D002F580629042DCD002F51A
:1049780080629042D8D0002FD6D1E9E700000140EC
:104988000004014000400140004801400018004078
:1049980000040040F8B590F83C30012B7DD001238D
:1049A80004460D4680F83C300C2A08D8DFE802F0AF
:1049B8002F0707073E0707074E0707070C000120C8
:1049C800002384F83C30F8BD0368EE68AD68D1E98F
:1049D8000020196A120321F4204102F420420A43FC
:1049E800196A21F480511962D96921F4407141EAA8
:1049F800002166F30F31D9611A62DA6922F4406244
:104A0800DA61DA6942EA0522DA610020D8E700684B
:104A1800CB68D1E90012FFF759FF8369AA6823F030
:104A28000C038361836913438361EEE70068CB68F5
:104A3800D1E90012FFF7BAFA8369AA6823F4406340
:104A48008361836943EA02238361DEE70368DFF851
:104A58005CC0186A1F6A6345EE6827F48077D1E95D
:104A680000211F621BD0104FBB4218D0120220F445
:104A78002060AD6802F420620243D86920F0030088
:104A8800014366F30711D9611A62DA6922F00C0250
:104A9800DA61DA692A43DA61B7E70220F8BD1F6AEA
:104AA80027F480671F62E1E700040140000001402D
:104AB800704700BF704700BF704700BF82B0002337
:104AC800019302E00369002B09DB019B0133019389
:104AD800019BB3F1706FF5D9032002B070470A2328
:104AE8000193019B2BB1019B013B0193019B002B7F
:104AF800F9D1036943F00103036103E0036913F08B
:104B0800010307D0019B01330193019BB3F1706F3F
:104B1800F4D9E1E7184602B0704700BF84B010B579
:104B28000DF10C0C04468CE80E009DF81130012B99
:104B38002FD1826BA3F142139DF8181022F4803212
:104B480001298263C26803EA0203C360C36823F4CD
:104B58004013C36030D02046FFF7B0FF9DF80E30F9
:104B6800012B12D1E26D174B92B2E265E26D13434D
:104B7800E365A36823F01E03A360A36843F006035C
:104B8800A360A36843F02003A360BDE8104004B00D
:104B98007047C36843F04003C360FFF78FFF9DF879
:104BA800153023B9A36B43F48033A363D6E7A36B13
:104BB80023F48033A363D1E7C36843F48013C3604D
:104BC800C9E700BF0000EE03022A03460AD04FF4EB
:104BD8001051DA68002022F47052DA60DA680A4369
:104BE800DA607047234A24480A4482422CD9234A6F
:104BF80023480A4482422AD9224A23480A44824244
:104C080028D9224A22480A44824226D3214A2248E5
:104C18000A44824224D9214A21480A44824222D3A2
:104C2800204A21480A448242D1D3204A20480A44D3
:104C380082421BD31F4A20480A4482422CBF4FF4A9
:104C4800C0514FF4E051C4E74FF47051C1E74FF43D
:104C58006051BEE74FF45051BBE74FF44051B8E7FD
:104C68004FF43051B5E74FF42051B2E74FF40051FB
:104C7800AFE700BF405327FFFF340C00401E1BFF67
:104C88003F420F0000DC0BFF7F4F1200808CF9FEC3
:104C980020D6130060B6E5FE5FE3160000D3CEFE13
:104CA80040771B00C05BB3FEC091210000CA91FE93
:104CB80020753800E05459FEE09C4100034600206E
:104CC8009A6842F001029A60704700BF03460020CC
:104CD8009A6822F001029A60704700BF38B5C3682D
:104CE8000129054623F0C043C36017D0A1B9C368A2
:104CF8000C4643F08043C36001E0C82C0CD00A2066
:104D08000A34FCF727FB6B69DB07F6D4A4F1C8006B
:104D1800B0FA80F0400938BD012038BDC3680024CE
:104D280043F00053C36001E0C82CF5D00A200A34D0
:104D3800FCF710FB6B69DA07F6D5A4F1C800B0FAE6
:104D480080F04009E7E700BF82B00023019302E04A
:104D58000369002B09DB019B01330193019BB3F12C
:104D6800706FF5D9032002B070478901002341F024
:104D780020010193016103E0036913F0200307D0C8
:104D8800019B01330193019BB3F1706FF4D9E9E7FB
:104D9800184602B0704700BF82B00023019302E0BA
:104DA8000369002B09DB019B01330193019BB3F1DC
:104DB800706FF5D9032002B07047002210230192CA
:104DC800036103E0036913F0100307D0019B01336B
:104DD8000193019BB3F1706FF4D9EBE7184602B069
:104DE800704700BF84B0F8B507AD044685E80E00EB
:104DF80000239DF81C509DF8266019461A46013379
:104E080004EB82020F2BC2F80411F7D104F50067F6
:104E1800002E40F09B807B6843F002037B60A36B0D
:104E280023F40013A363236843F04003236023683B
:104E380043F0800323600023C4F8003E9DF821302E
:104E4800012B00F08F80D4F8003843F00303C4F836
:104E5800003810212046FFF777FF01462046FFF76C
:104E68009BFF41EA000E00225FFA8EFE3A61BEF116
:104E7800000E7A61FA6118BF4FF0010EFDB1D4F847
:104E8800001904F51063002914DB002119600020C3
:104E98004FF67F310132186199602033AA4234D02D
:104EA800D3F800C0BCF1000FEFDA4FF0904CC3F814
:104EB80000C0EFE74FF00061C4F80019E7E73B696D
:104EC800002223F480733B616FF08043A261636129
:104ED8009DF81E301BB9A36943F01003A361A269B2
:104EE800284B13439DF82220A3611AB1A36943F00C
:104EF8000803A361012E03D1A269234B1343A361C5
:104F08007046BDE8F84004B07047D4F8002B04F5AB
:104F18003063002A14DB0022002119604FF0000CD6
:104F28004FF67F300132C3F810C098602033AA4290
:104F3800C5D019680029EFDA4FF090411960F1E700
:104F48004FF00062C4F8002B0022E7E7A36B43F49C
:104F58000013A3630023C4F8003E9DF82130012B01
:104F68007FF471AF9DF81F3023B9D4F80038C4F826
:104F780000386EE7D4F8003843F00103C4F800386D
:104F880067E700BF00383C8004000040D0F80838CC
:104F98009A0705D413F0060F0CBF00200F207047A6
:104FA8000220704730B50A78012300F5006C02F042
:104FB8000F0E00EB421003FA0EF391F801E0BEF178
:104FC800010F18D0DCF81C2042EA0343CCF81C304F
:104FD800D0F8003B1B040CD48B68D0F8004BC3F30B
:104FE8000A030979114A234343EA81431A43C0F863
:104FF800002B002030BDDCF81C402343CCF81C30CB
:10500800D0F800391C04F4D48B68D0F80059C3F3E5
:105018000A030C7905492B4343EA844343EA825344
:105028001943C0F80019002030BD00BF00800010EF
:105038004A780B78012A00EB431C2AD0DCF8002BB5
:10504800002A19DB4FF4803203F00F03D0F83C1824
:1050580002FA03F3234A21EA0301C0F83C18D0F806
:105068001C1821EA0303C0F81C380020DCF8003BB8
:105078001A40CCF8002B7047DCF8002B42F0006295
:10508800CCF8002BDCF8002B42F08042CCF8002B47
:10509800D8E7DCF80029002A0BDADCF8002942F00E
:1050A8000062CCF80029DCF8002942F08042CCF8F4
:1050B800002903F00F020123D0F83C1893400A4A54
:1050C80021EA0301C0F83C18D0F81C1821EA0303B0
:1050D800C0F81C380020DCF800391A40CCF8002948
:1050E800704700BF0078F3EF007833EC2DE9F0410A
:1050F8004C780E78012C0D6900EB461391F804E00A
:105108005FD0D3F8104B03F5306C6FF31204C3F87B
:10511800104BD3F8104B6FF3DC44C3F8104B8C687A
:105128005EBB05B10C610C62DCF81050C4F31204CC
:10513800012A44EA0504CCF81040DCF8104044F495
:105148000024CCF8104036D0BEF1010F0CD1D0F8B5
:10515800082812F4807FD3F8002B0CBF42F00052CD
:1051680042F08052C3F8002BD3F8002B42F00442DF
:10517800C3F8002B0020BDE8F081002DD4D02544D1
:10518800614E012A05F1FF35B5FBF4F5ADB205FB1B
:1051980004F406EAC545DCF810600C62C4F3120496
:1051A80045EA0605CCF81050DCF8105044EA05042E
:1051B800CCF81040C8D1CA68002AC5D0CCF8142051
:1051C800C2E703F510641DBB2569012A6FF3DC45AE
:1051D8002561256945F40025256125696FF31205C8
:1051E80025612DD0D3F80049BEF1010F44F00444E5
:1051F800C3F800490C6962D0002CBBD006F00F063A
:105208000123D0F83428B3401343C0F83438B1E749
:1052180027696FF31207276127696FF3DC47276156
:105228008F684EBBAF426CD3276947F400272761CC
:105238002769C5F31205012A45EA07052561D1D179
:10524800CA6902B16261BEF1010F0CD1D0F8082819
:1052580012F4807FD3F800290CBF42F0005242F0CC
:105268008052C3F80029D3F80029002042F00442F4
:10527800C3F80029BDE8F08107EB050CD4F81080CD
:10528800BEF1010F0CF1FF3CBCFBF7FC1E4F07EA17
:10529800CC471FFA8CFC47EA08072761C8D14FEAB8
:1052A8004C7C0CF0C047D4F810C02CF0C04CC4F8AB
:1052B80010C0D4F810C047EA0C072761B8E7D0F847
:1052C800085815F4807FD3F800590CBF45F00055F5
:1052D80045F08055C3F80059002A7FF44BAFA3B2BC
:1052E80003339B083FF446AFCA6800EB063602EB6F
:1052F800830306F5805652F8041B93423160FAD1B5
:1053080038E73D460F618FE70000F81F30B40246CA
:10531800487882B0002301280093946857D0936995
:1053280002F5006C23F0800393615369180605D4D5
:10533800DCF8043043F40073CCF80430A3063AD503
:1053480000200023009302E053691C0607D4009B49
:1053580001330093009BB3F5702FF5D9012009782C
:1053680002F5306200254B0102EB41119C5844F0D4
:1053780000649C509C5844F080449C50009502E086
:105388008B689B0707D4009B01330093009BB3F500
:10539800702FF5D901208B6843F002038B60DCF88D
:1053A800043043F48063CCF8043002B030BC70475A
:1053B8005369DD0618D4009B01330093009BB3F5B5
:1053C800702FF5D90120136A0193019BB9E7097879
:1053D80002F510624B0102EB41119C58002C05DBD1
:1053E800002002B030BC70470020ECE79C5844F025
:1053F80000649C509C5844F080449C5002E00B6828
:10540800002BEDDA009B01330093009BB3F5702F5E
:10541800F5D9CAE70B784A7800EB4310003B18BF70
:105428000123012A0CD0D0F8002B002A00DBA3B9F5
:10543800D0F8003B43F40013C0F8003B002070474D
:10544800D0F80029002A00DB73B9D0F8003943F4FA
:105458000013C0F8003900207047D0F8003B23F053
:105468008043C0F8003BE3E7D0F8003923F08043DD
:10547800C0F80039D0F8003943F40013C0F80039F7
:10548800E9E700BF0B794A7891F800C0023B012A8E
:1054980000EB4C10DBB211D0D0F8002B012B22F41A
:1054A8000012C0F8002B01D900207047D0F8003B4B
:1054B80043F08053C0F8003B00207047D0F8002923
:1054C800012B22F40012C0F80029EDD8D0F80039D9
:1054D80043F08053C0F800390020704710B49DF89D
:1054E800044064B903339B0809D0013201EB8303FC
:1054F80000EB023051F8042B8B420260FAD10020F5
:105508005DF8044B704700BFF0B55FEA920E06469F
:1055180002F003071BD000F580558C4600231C467B
:1055280001332A689E454CF8042BF8D1043101EB6D
:1055380084005FB106F5805607440022316821FADD
:1055480002F3083200F8013BB842F8D1F0BD084632
:10555800EFE700BF034609010020D3F8002801F453
:10556800FE6122F4FE62C3F80028D3F80028114334
:10557800C3F80018704700BF03460020D3F8002E78
:10558800194622F00302C3F8002ED3F8043823F09A
:105598000203C1F80438704703460020D3F8002EF0
:1055A800194622F00302C3F8002ED3F8043843F05A
:1055B8000203C1F804387047426980691040704797
:1055C800D0F81838D0F81C081840000C704700BFF5
:1055D800D0F81838D0F81C08184080B2704700BFBF
:1055E80000EB4111D1F8082BD0F81408104070478F
:1055F800D0F81028D0F8343800EB411001F00F0132
:10560800D0F80809CB40DB01DBB2134318407047E0
:10561800406900F00100704703460020D3F80029D4
:1056280019466FF30A02C3F80029D3F8043843F483
:105638008073C1F80438704730B4056C00F53063E6
:10564800104CA54203D9D0F8004B002C16DB0024DF
:1056580001291C611C6944F400241C611C6944F084
:1056680018041C611C6944F0C0441C6106D15A61CD
:10567800D0F8003B43F08023C0F8003B002030BC4A
:10568800704700BF0A30544F78B10023C0F8B832D1
:10569800C0F8C432C0F8D03209B1C0F8B41201233E
:1056A800027080F89C32FBF7F3BC0320704700BF00
:1056B80010B5002382B0ADF8063089B1CB6A044634
:1056C800C0F8B81223B10DF106009847C4F8D0020B
:1056D800D4F8D83200200133C4F8D83202B010BD53
:1056E800032002B010BD00BFFBF7FABCD0F8B832F7
:1056F8000BB11B6818471846704700BF08B5D0F8AB
:10570800B8325B689847002818BF032008BD00BF5F
:1057180038B500F2AA250446284600F01BFCB4F868
:10572800B03294F8AA120122C4F8983201F01F038B
:10573800C4F8942293420ED0022B06D08BB9294686
:105748002046BDE8384000F06BB929462046BDE840
:10575800384000F04DBB29462046BDE8384000F0EF
:1057680007BB204601F08001BDE83840FBF7D2BCFA
:1057780010B5044629B9D0F89422032A10D0002085
:1057880010BD90F89C32032BF9D1D0F8B8329B6940
:10579800002BF4D00022BDE81040C0F8D4221847EE
:1057A8000B46B0F86021D0F85811914208D890F80B
:1057B8009C22032A12D0204600F046FC002010BD8F
:1057C8008B1AD0F864119A421144C0F8583138BF86
:1057D8001A46C0F8641100F02DFCD0E7D0F8B822C2
:1057E8001269002AE7D0C0F8D4329047E3E700BF37
:1057F80070B5044659B9D0F89432022B16D094F8F3
:10580800A03213B1002384F8A032002070BD90F8B4
:105818009C32032BF9D1D0F8B8325B69002BF4D055
:105828000022BDE87040C0F8D422184782690D46AE
:10583800038C9A4210D81DD094F89C32032B2CD09C
:1058480080212046FBF766FC204600F009FC94F80E
:10585800A032002BD9D0D5E7416AD21A1944826107
:10586800416200F0CDFB2B462A4629462046FBF72D
:105878008DFCC4E743699A42DED8D0F89822934257
:10588800DAD20A4600F0BCFB2B462A4629462046B7
:10589800C4F89852FBF77AFCB1E7D4F8B832DB6861
:1058A800002BCDD000222046C4F8D4229847C7E761
:1058B800F8B500210122D0F8B832044680F89C22BD
:1058C8004160C0F89412C0F8A41280F8A0121BB16D
:1058D8005B680BB19847B8B900270022402501261C
:1058E800402311462046FBF703FC2B46002280216B
:1058F8002046A4F8605184F86361FBF7F9FB384649
:1059080084F823602584F8BD0327E6E703460020D2
:105918001974704790F89C220346042A04D090F822
:105928009C22D2B280F89D220422002083F89C2277
:10593800704700BF90F89C32042B04D190F89D3238
:10594800DBB280F89C320020704700BF90F89C22A0
:10595800032A01D00020704708B5D0F8B83213B137
:10596800DB6903B19847002008BD00BFD0F8D422F6
:10597800AE3250F8222062B108B590F89C32032B61
:1059880001D0002008BD136A002BFAD098470020E8
:1059980008BD0320704700BFD0F8D422AE3250F8BB
:1059A800222062B108B590F89C32032B01D0002068
:1059B80008BD536A002BFAD09847002008BD032081
:1059C800704700BF002070470121D0F8B82280F846
:1059D8009C1242B15268017908B5904708B9002075
:1059E80008BD032008BD0020704700BF0020704795
:1059F800002070470278B0F802C01346944503D8D7
:105A08000CE09C450AD902781044134442789BB2B2
:105A1800052AF6D182788A42F3D170470020704770
:105A280070B50B7882B00D46044603F06003202B56
:105A380028D0402B26D05BB180212046FBF76AFB9B
:105A480000212046FBF766FB0025284602B070BD02
:105A58004B78092BF0D801A252F823F0DD5A000840
:105A6800055B0008415A0008235B0008415A0008FA
:105A78003B5B00087D5B0008415A0008B15B0008E9
:105A8800A55A0008D4F8D43229462046AE3354F833
:105A980023309B6802B0BDE8704018478978B34D41
:105AA8000129297000F2488190F89C32022BDEB25D
:105AB80000F02881032E00F005818021FBF72AFBE6
:105AC80000212046FBF726FB29782046FFF716FE23
